:020000040000FA
:04000000D6EF1AF02D
:100800000044555459204359434C4500494E460035
:100810004E414E00696E66006E616E00202520001C
:070820006C66002566000074
:10082800000E00017B6F000E7A6F49C08CF04AC041
:100838008DF04BC08EF04CC08FF08FBF28EF04F0C6
:1008480026EF04F03EEF04F0000E7B6F010E7A6F86
:100858008CC001F08DC002F08EC003F08FC004F090
:1008680072EC1AF001C08CF002C08DF003C08EF05B
:1008780004C08FF0000E0001936F000E926FCEC07F
:100888007EF0CFC07FF07A517B11D8A44EEF04F0F0
:1008980050EF04F057EF04F0D2A555EF04F057EFEE
:1008A80004F071EF04F07A517B11D8A45EEF04F0E4
:1008B80060EF04F066EF04F0000E616F2B0E606FBE
:1008C8006AEF04F0000E616F2D0E606F60C000F1DA
:1008D800924B932B7E07D8A07F078CC001F08DC068
:1008E80002F08EC003F08FC004F00FEC15F0010485
:1008F8000210D8A482EF04F084EF04F0DBEF04F0D8
:10090800BF0E4E6EFF0E4F6E4D50506E516A4E50D8
:1009180050264F50512251500AE11A0E505CD8A06F
:1009280098EF04F09BEF04F0010E9CEF04F0000E2A
:100938000001626F636B62516311D8B4A6EF04F0D3
:10094800A8EF04F0B6EF04F0000E9225016E010E38
:100958009321026E0C0E036E080E046E77EC19F0EC
:10096800C2EF04F0000E9225016E010E9321026E73
:10097800140E036E080E046E77EC19F00001FD0EDC
:100988007E27FF0E7F2347C011F048C012F0000EEB
:10099800136E010E146E7EC015F07FC016F0C4EC05
:1009A80016F011C047F012C048F03FEF0AF08CC0B3
:1009B80001F08DC002F08EC003F08FC004F00FEC80
:1009C80015F001500210D8A4ECEF04F0EEEF04F09B
:1009D8002EEF05F0BF0E4E6EFF0E4F6E4D50506E4F
:1009E800516A4E5050264F50512251500AE11A0E6A
:1009F800505CD8A002EF05F005EF05F0010E06EFF8
:100A080005F0000E0001646F656B64516511D8B480
:100A180010EF05F012EF05F020EF05F0000E92251B
:100A2800016E010E9321026E100E036E080E046E05
:100A380077EC19F0C2EF04F0000E9225016E010E5A
:100A48009321026E180E036E080E046E77EC19F0EF
:100A5800C2EF04F0000E0001946F000E956F800E37
:100A6800966F3F0E976F000E916F000E906F8CC0BF
:100A780001F08DC002F08EC003F08FC004F0000EAC
:100A8800056E000E066E000E076E000E086E40EC36
:100A980018F0D8B052EF05F054EF05F0D7EF05F095
:100AA80073EF05F094C001F095C002F096C003F012
:100AB80097C004F0000E056E000E066E200E076E3D
:100AC800410E086EA0EC0CF001C094F002C095F045
:100AD80003C096F004C097F00001904B912B8CC096
:100AE8001AF08DC01BF08EC01CF08FC01DF0000ED8
:100AF800056E000E066E200E076E410E086E94C03D
:100B080001F095C002F096C003F097C004F0A0EC85
:100B18000CF001C01EF002C01FF003C020F004C09A
:100B280021F08DEC14F0D8B09CEF05F09EEF05F0A5
:100B380056EF05F0BEEF05F094C01AF095C01BF013
:100B480096C01CF097C01DF0000E1E6E000E1F6EA2
:100B5800200E206E410E216EB5EC0EF01AC094F0F6
:100B68001BC095F01CC096F01DC097F000019007BF
:100B7800D8A091078CC01AF08DC01BF08EC01CF055
:100B88008FC01DF094C01EF095C01FF096C020F0D5
:100B980097C021F08DEC14F0D8A0D5EF05F0D7EF71
:100BA80005F0A0EF05F04DC007F0086A18EC19F041
:100BB80007500001816F81C080F0670E8119D8A4A9
:100BC800E8EF05F0EAEF05F010EF06F0D051D1118B
:100BD800D8A4F1EF05F0F3EF05F0F7EF05F0000EFC
:100BE800D16F010ED06FD1BF04EF06F0D15106E1ED
:100BF800D005D8B002EF06F004EF06F00AEF06F0D1
:100C0800000E7D6F060E7C6F19EF06F0D0C07CF0E9
:100C1800D1C07DF019EF06F0D1BF15EF06F017EF40
:100C280006F004EF06F00AEF06F0670E8119D8A463
:100C380020EF06F022EF06F051EF06F091AF30EF0B
:100C480006F0FC0E905DFF0E9159D8A02EEF06F02D
:100C580030EF06F04FEF06F0FF0E4E6EFF0E4F6EB0
:100C68007CC050F07DC051F04E5050264F5051225C
:100C78009051505C5150800A526E9151800A5258DE
:100C8800D8A049EF06F04BEF06F04FEF06F0660EDE
:100C9800806F51EF06F0650E806F7CC072F07DC0EA
:100CA80073F0670E8119D8A45CEF06F05EEF06F0CA
:100CB8006EEF06F0660E8019D8A465EF06F067EFB0
:100CC80006F070EF06F091BF6EEF06F06CEF06F0DD
:100CD80070EF06F0724B732B660E8019D8A477EF6D
:100CE80006F079EF06F099EF06F091BF80EF06F075
:100CF8007EEF06F08CEF06F0000E946F000E956FF5
:100D0800800E966F3F0E976F000E916F000E906FDA
:100D1800670E8119D8B493EF06F095EF06F099EFB6
:100D280006F09051722791517323000E8B6F000EBD
:100D38008A6F8CC082F08DC083F08EC084F08FC023
:100D480085F094C074F095C075F096C076F097C0A1
:100D580077F02AEF07F082C01AF083C01BF084C036
:100D68001CF085C01DF094C01EF095C01FF096C001
:100D780020F097C021F0B5EC0EF01AC033F01BC07C
:100D880034F01CC035F01DC036F027EC12F033C02B
:100D980086F034C087F035C088F036C089F086C048
:100DA80033F087C034F088C035F089C036F00AECDB
:100DB80014F033C078F034C079F082C01AF083C0E0
:100DC8001BF084C01CF085C01DF094C005F095C0D0
:100DD80006F096C007F097C008F086C001F087C0FB
:100DE80002F088C003F089C004F0A0EC0CF001C048
:100DF8001EF002C01FF003C020F004C021F0F4EC84
:100E080019F01AC082F01BC083F01CC084F01DC00A
:100E180085F094C01AF095C01BF096C01CF097C0DE
:100E28001DF0000E1E6E000E1F6E200E206E410E6D
:100E3800216EB5EC0EF01AC094F01BC095F01CC0E2
:100E480096F01DC097F000018A4B8B2B72518A5D7A
:100E58008B51800A4E6E7351800A4E58D8A037EFD6
:100E680007F039EF07F0AFEF06F094C001F095C036
:100E780002F096C003F097C004F0000E056E000E55
:100E8800066EA00E076E400E086EA0EC0CF001C0B6
:100E980086F002C087F003C088F004C089F082C0E1
:100EA8001AF083C01BF084C01CF085C01DF086C0FA
:100EB8001EF087C01FF088C020F089C021F08DEC9B
:100EC80014F0D8B06AEF07F06CEF07F077EF07F08F
:100ED800000E0001866F000E876F000E886F000EEF
:100EE800896FA0EF07F082C001F083C002F084C0D0
:100EF80003F085C004F086C005F087C006F088C0FE
:100F080007F089C008F040EC18F0D8A08EEF07F081
:100F180090EF07F0A0EF07F0000178B196EF07F027
:100F280098EF07F0A0EF07F0000E866F000E876FAE
:100F3800000E886F000E896F8CC001F08DC002F022
:100F48008EC003F08FC004F086C005F087C006F09D
:100F580088C007F089C008F040EC0AF001C082F0B0
:100F680002C083F003C084F004C085F082C01AF088
:100F780083C01BF084C01CF085C01DF0000E056EF8
:100F8800000E066E200E076E410E086E74C001F04A
:100F980075C002F076C003F077C004F0A0EC0CF046
:100FA80001C01EF002C01FF003C020F004C021F0F1
:100FB8008DEC14F0D8A0E3EF07F0E5EF07F00EEFA3
:100FC80008F00001904B912B74C001F075C002F03D
:100FD80076C003F077C004F0000E056E000E066EB2
:100FE800200E076E410E086EA0EC0CF001C074F0E4
:100FF80002C075F003C076F004C077F0660E0001F9
:101008008019D8A40AEF08F00CEF08F00EEF08F0EA
:10101800724B732B74C094F075C095F076C096F03F
:1010280077C097F0650E00018019D8B41EEF08F05C
:1010380020EF08F026EF08F090C070F091C071F032
:101048002AEF08F0000E716F000E706F000E6F6FC0
:10105800000E6E6F000E6D6F000E6C6F000E8B6FC2
:10106800000E8A6F25EF09F082C01AF083C01BF0CA
:1010780084C01CF085C01DF094C01EF095C01FF000
:1010880096C020F097C021F0B5EC0EF01AC033F0EE
:101098001BC034F01CC035F01DC036F027EC12F030
:1010A80033C086F034C087F035C088F036C089F088
:1010B80086C033F087C034F088C035F089C036F078
:1010C8000AEC14F033C078F034C079F00001D2B9DA
:1010D80070EF08F072EF08F08FEF08F0785179118F
:1010E800D8A479EF08F07BEF08F08FEF08F0670ECF
:1010F8008119D8A482EF08F084EF08F08FEF08F088
:1011080071BF8BEF08F089EF08F08FEF08F06C4B98
:101118006D2BD9EF08F06E516F11D8A496EF08F037
:1011280098EF08F0C2EF08F071BF9FEF08F09DEF4D
:1011380008F0C2EF08F0000E9225D96E010E932137
:10114800DA6E2E0EDF6E924B932B7E07D8A07F07A8
:10115800000E6F6F010E6E6FC2EF08F0000E922541
:10116800D96E010E9321DA6E300EDF6E924B932BFF
:101178007E07D8A07F076C07D8A06D076C516D114A
:10118800D8A4C9EF08F0CBEF08F0B2EF08F0000ED2
:101198009225D96E010E9321DA6E7851300FDF6EE9
:1011A800924B932B7E07D8A07F0782C01AF083C08A
:1011B8001BF084C01CF085C01DF094C005F095C0DC
:1011C80006F096C007F097C008F086C001F087C007
:1011D80002F088C003F089C004F0A0EC0CF001C054
:1011E8001EF002C01FF003C020F004C021F0F4EC90
:1011F80019F01AC082F01BC083F01CC084F01DC017
:1012080085F094C01AF095C01BF096C01CF097C0EA
:101218001DF0000E1E6E000E1F6E200E206E410E79
:10122800216EB5EC0EF01AC094F01BC095F01CC0EE
:1012380096F01DC097F000017007D8A071078A4B7F
:101248008B2B72518A5D8B51800A4E6E7351800AC6
:101258004E58D8B032EF09F034EF09F042EF09F0F8
:1012680093BF40EF09F0935109E14B0E925DD8A06E
:1012780040EF09F042EF09F038EF08F06E516F11B6
:10128800D8A449EF09F04BEF09F05CEF09F0D2A9B7
:1012980050EF09F052EF09F05CEF09F0000E9225CB
:1012A800D96E010E9321DA6E2E0EDF6E924B932BC0
:1012B800000E9225D96E010E9321DA6E000EDF6EB4
:1012C800650E8019D8A46BEF09F06DEF09F0C7EF30
:1012D80004F0000E8B6F4F0E8A6F000E8A25D96EB0
:1012E800010E8B21DA6E000EDF6E000E7B6F000E92
:1012F8007A6F91BF84EF09F082EF09F08CEF09F063
:10130800000E7B6F010E7A6F906D911FD8B0912BF4
:10131800000E7D6F020E7C6FBDEF09F08A07D8A022
:101328008B07000E8A25D96E010E8B21DA6E90C0CC
:1013380001F091C002F0000E046E0A0E036EE8EC94
:1013480017F00150300FDF6E90C001F091C002F02D
:10135800000E046E0A0E036E27EC17F001C090F021
:1013680002C091F000017C07D8A07D077E07D8A0B5
:101378007F0790519111D8A4C4EF09F0C6EF09F086
:1013880092EF09F07DBFD3EF09F07D5106E17C05AE
:10139800D8B0D1EF09F0D3EF09F092EF09F08A073E
:1013A800D8A08B077A517B11D8A4DDEF09F0DFEFC5
:1013B80009F0E5EF09F0000E676F2B0E666FE9EF95
:1013C80009F0000E676F2D0E666F000E8A25D96E24
:1013D800010E8B21DA6E66C0DFFF7E07D8A07F077B
:1013E8008A07D8A08B07BF0E4E6EFF0E4F6E4D506A
:1013F800506E516A4E5050264F50512251500AE1BA
:101408001A0E505CD8A00BEF0AF00EEF0AF0010E8E
:101418000FEF0AF0000E6A6F6B6B6A516B11D8A45C
:1014280018EF0AF01AEF0AF020EF0AF0000E696FC1
:10143800650E686F24EF0AF0000E696F450E686F3D
:10144800000E8A25D96E010E8B21DA6E68C0DFFF87
:101458007E07D8A07F07000E9225016E010E93210A
:10146800026E000E8A25036E010E8B21046E77EC46
:1014780019F0C7EF04F012000450800B0D6E0450F1
:1014880004240F6E03AE4BEF0AF04DEF0AF04EEF57
:101498000AF00F800F50D8B454EF0AF056EF0AF054
:1014A8006BEF0AF00F28D8A45CEF0AF05EEF0AF0A1
:1014B80066EF0AF0000E016E000E026E000E036E5B
:1014C800000E046E038E000E046E73EF0AF0000E19
:1014D800016E000E026E000E036E000E046E0850C0
:1014E800800B0E6E0D500E18D8B47DEF0AF07FEF0A
:1014F8000AF080EF0AF00D8C085008240E6E07AE33
:1015080088EF0AF08AEF0AF08BEF0AF00E800E508F
:10151800D8B491EF0AF093EF0AF0A8EF0AF00E287A
:10152800D8A499EF0AF09BEF0AF0A3EF0AF0000E97
:10153800056E000E066E000E076E000E086E078E12
:10154800000E086EB0EF0AF0000E056E000E066E73
:10155800000E076E000E086E0F500E5CD8B0B7EF85
:101568000AF0B9EF0AF0E0EF0AF00DACBEEF0AF0AE
:10157800C0EF0AF0C2EF0AF0800E0D1A0FC010F08B
:101588000EC00FF010C00EF001C010F005C001F041
:1015980010C005F002C010F006C002F010C006F03E
:1015A80003C010F007C003F010C007F004C010F02B
:1015B80008C004F010C008F0000E106E0F500EC0E6
:1015C80009F00A6A095E000E0A5A0ABEF5EF0AF027
:1015D8000A5009E11A0E095CD8A0F5EF0AF0F7EFF6
:1015E8000AF02EEF0BF00150021003100410D8A4DB
:1015F80000EF0BF003EF0BF0010E04EF0BF0000E01
:10160800106E000E016E000E026E000E036E000ECC
:10161800046E0EC00FF037EF0BF010A016EF0BF0B2
:1016280018EF0BF01EEF0BF0D89010300109106E78
:1016380020EF0BF0D890103201A025EF0BF027EF28
:101648000BF028EF0BF0108E043404320332023210
:1016580001320F2A0E500F5CD8A035EF0BF037EF90
:101668000BF011EF0BF00DBC3CEF0BF03EEF0BF065
:101678007EEF0BF00F50D8A444EF0BF046EF0BF0C1
:1016880050EF0BF0000E016E000E026E000E036E9E
:10169800000E046E9FEF0CF0055001260650022242
:1016A800075003220850042204A05DEF0BF05FEFFF
:1016B8000BF00BEF0CF010A064EF0BF066EF0BF0E3
:1016C8006CEF0BF0D89010300109106E6EEF0BF034
:1016D800D890103201A073EF0BF075EF0BF076EF96
:1016E8000BF0108E043404320332023201320F2A16
:1016F8000BEF0CF00550015C0650025807500358D8
:101708000450800A096E0850800A0958D8B08FEF33
:101718000BF091EF0BF0BCEF0BF00150055C096E7C
:10172800025006580A6E035007580B6E04500858AA
:101738000C6EFF0E0924016EFF0E0A20026EFF0ECA
:101748000B20036EFF0E0C20046E800E0D1A106C19
:101758001050D8A4B2EF0BF0B4EF0BF0C4EF0BF0BD
:10176800010E0126000E022203220422C4EF0BF010
:101778000550015E0650025A0750035A0850045A91
:101788000150021003100410D8A4CDEF0BF0CFEFD6
:101798000BF004EF0CF01050D8A4D5EF0BF0D7EFF6
:1017A8000BF004EF0CF0000E016E000E026E000E3E
:1017B800036E000E046E9FEF0CF0D89001360236CF
:1017C8000336043610AEEBEF0BF0EDEF0BF0EEEF57
:1017D8000BF0018010A0F3EF0BF0F5EF0BF0F9EF31
:1017E8000BF0D8801036FBEF0BF0D89010360F5066
:1017F800D8B401EF0CF003EF0CF004EF0CF00F0677
:1018080003AE09EF0CF00BEF0CF0E1EF0BF0000E5C
:101818000E6E10AE12EF0CF014EF0CF02CEF0CF073
:1018280010C009F07F0E0916D8B41DEF0CF01FEF99
:101838000CF023EF0CF0010E0E6E2CEF0CF001A053
:1018480028EF0CF02AEF0CF02CEF0CF01FEF0CF047
:101858000E50D8B432EF0CF034EF0CF05FEF0CF010
:10186800010E0126000E02220322042204A03FEFEB
:101878000CF041EF0CF05FEF0CF001C009F002C072
:101888000AF003C00BF004C00CF00C340C320B321D
:101898000A32093209C001F00AC002F00BC003F095
:1018A8000CC004F00F28D8B45CEF0CF05EEF0CF01D
:1018B8005FEF0CF00F2A0F28D8B465EF0CF067EF34
:1018C8000CF06FEF0CF00F50D8A46DEF0CF06FEF29
:1018D8000CF081EF0CF0000E016E000E026E000E8F
:1018E800036E000E046E0F50D8A47DEF0CF07FEF4E
:1018F8000CF081EF0CF0000E0D6E0FA086EF0CF0CF
:1019080088EF0CF08BEF0CF0038E8CEF0CF0039E3D
:10191800D8900F30046E0DAE94EF0CF096EF0CF0EB
:1019280097EF0CF0048E01C001F002C002F003C072
:1019380003F004C004F012000450800B0D6E045034
:101948000424136E03AEABEF0CF0ADEF0CF0AEEF6A
:101958000CF013801350D8B4B4EF0CF0B6EF0CF0C1
:10196800C9EF0CF01328D8A4BCEF0CF0BEEF0CF0B4
:10197800C6EF0CF0000E016E000E026E000E036E34
:10198800000E046E038ED1EF0CF0000E016E000EF7
:10199800026E000E036E000E046E0850800B0D1AC6
:1019A80008500824126E07AEDCEF0CF0DEEF0CF0E6
:1019B800DFEF0CF012801250D8B4E5EF0CF0E7EF2F
:1019C8000CF0FAEF0CF01228D8A4EDEF0CF0EFEFC2
:1019D8000CF0F7EF0CF0000E056E000E066E000E10
:1019E800076E000E086E078E02EF0DF0000E056EF2
:1019F800000E066E000E076E000E086E1250D8B468
:101A080008EF0DF00AEF0DF012EF0DF01350D8A407
:101A180010EF0DF012EF0DF01CEF0DF0000E016E3F
:101A2800000E026E000E036E000E046EB4EF0EF090
:101A380007500102F3CF18F0F4CF19F018500E6ECA
:101A48000F6A106A116A1950146E156A166A176AB5
:101A580006500202F3CF18F0F4CF19F018500E26F2
:101A6800000E0F221022112219501426000E1522E2
:101A78001622172205500302F3CF18F0F4CF19F0FD
:101A880018500E26000E0F2210221122195014266B
:101A9800000E15221622172210C011F00FC010F0E8
:101AA8000EC00FF00E6A05500202F3CF18F0F4CF03
:101AB80019F018500E2619500F22000E1022000E91
:101AC800112206500102F3CF18F0F4CF19F0185084
:101AD8000E2619500F22000E1022000E112210C0DF
:101AE80011F00FC010F00EC00FF00E6A0550010281
:101AF800F3CF18F0F4CF19F018500E2619500F2212
:101B0800000E1022000E112207500202F3CF18F027
:101B1800F4CF19F01850142619501522000E162269
:101B2800000E172206500302F3CF18F0F4CF19F075
:101B38001850142619501522000E1622000E1722CE
:101B480007500302F3CF18F0F4CF19F01850096EBC
:101B580019500A6E0B6A0C6A0BC00CF00AC00BF025
:101B680009C00AF0096A095014260A5015220B50B8
:101B780016220C5017220EC009F00FC00AF010C030
:101B88000BF011C00CF0190ECFEF0DF0D8900C32FD
:101B98000B320A320932E82ECAEF0DF0095014262A
:101BA8000A5015220B5016220C50172210C011F0A3
:101BB8000FC010F00EC00FF00E6A125013C009F0DB
:101BC8000A6A0926000E0A22820E0924186EFF0EE0
:101BD8000A20196E05EF0EF0D89014361536163611
:101BE800173611AEFAEF0DF0FCEF0DF0FDEF0DF02A
:101BF8001480D8900E360F36103611361806D8A035
:101C0800190616AE0AEF0EF00CEF0EF0F0EF0DF01D
:101C1800000E126E11AE13EF0EF015EF0EF039EF45
:101C28000EF0FF0E0E14096EFF0E0F140A6EFF0E53
:101C380010140B6E7F0E11140C6E09500A100B1045
:101C48000C10D8B42AEF0EF02CEF0EF030EF0EF097
:101C5800010E126E39EF0EF014A035EF0EF037EFCB
:101C68000EF039EF0EF02CEF0EF01250D8B43FEF13
:101C78000EF041EF0EF065EF0EF0010E1426000E87
:101C880015221622172217A04CEF0EF04EEF0EF079
:101C980065EF0EF014C009F015C00AF016C00BF07D
:101CA80017C00CF00C340C320B320A32093209C05E
:101CB80014F00AC015F00BC016F00CC017F0184A43
:101CC800192A19BE70EF0EF0195008E11828D8A08B
:101CD80070EF0EF072EF0EF07CEF0EF0000E146E47
:101CE800000E156E800E166E7F0E176EAAEF0EF0A0
:101CF80019BE89EF0EF0195006E11804D8B087EF25
:101D08000EF089EF0EF095EF0EF0000E146E000E37
:101D1800156E000E166E000E176E000E0D6EAAEFF1
:101D28000EF018C013F0FF0E1416FF0E15167F0ED6
:101D38001616000E171613A0A4EF0EF0A6EF0EF05D
:101D4800A7EF0EF0168ED8901330176E0D5017129D
:101D580014C001F015C002F016C003F017C004F05B
:101D680012001D50800B2A6E1D501D24316E1CAEB2
:101D7800C0EF0EF0C2EF0EF0C3EF0EF0318031501D
:101D8800D8B4C9EF0EF0CBEF0EF0E0EF0EF031282B
:101D9800D8A4D1EF0EF0D3EF0EF0DBEF0EF0000E6B
:101DA8001A6E000E1B6E000E1C6E000E1D6E1C8E31
:101DB800000E1D6EE8EF0EF0000E1A6E000E1B6E80
:101DC800000E1C6E000E1D6E2150800B2A1A215029
:101DD8002124326E20AEF3EF0EF0F5EF0EF0F6EFA1
:101DE8000EF032803250D8B4FCEF0EF0FEEF0EF059
:101DF80013EF0FF03228D8A404EF0FF006EF0FF01E
:101E08000EEF0FF0000E1E6E000E1F6E000E206EFD
:101E1800000E216E208E000E216E1BEF0FF0000EBB
:101E28001E6E000E1F6E000E206E000E216E1E50DC
:101E38001F1020102110D8A424EF0FF026EF0FF068
:101E48003EEF0FF0000E1A6E000E1B6E000E1C6E99
:101E5800000E1D6E800E1C127F0E1D122A501D12C0
:101E68001AC01AF01BC01BF01CC01CF01DC01DF0CE
:101E780081EF10F03150D8A444EF0FF046EF0FF087
:101E880050EF0FF0000E1A6E000E1B6E000E1C6E47
:101E9800000E1D6E81EF10F0325031C022F0236A1F
:101EA800225E000E235A7F0E22242B6E000E232062
:101EB8002C6E1AC026F01BC027F01CC028F01DC0CD
:101EC80029F0000E1A6E000E1B6E000E1C6E000E1E
:101ED8001D6E000E2D6E000E2E6E000E2F6E000E63
:101EE800306E000E326EB1EF0FF03250D8B47FEF83
:101EF8000FF081EF0FF098EF0FF0D89026362736C5
:101F080028362936D8901A361B361C361D3630AE80
:101F180090EF0FF092EF0FF093EF0FF01A80D89038
:101F28002D362E362F3630361E50265C1F50275839
:101F38002050285821502958D8A0A5EF0FF0A7EF16
:101F48000FF0B0EF0FF0308C1E50265E1F50275A4E
:101F58002050285A2150295A322A190E3264B7EFD4
:101F68000FF0B9EF0FF079EF0FF026502710281077
:101F78002910D8B4C2EF0FF0C4EF0FF0DCEF0FF068
:101F88002D80DCEF0FF0D8901A361B361C361D3624
:101F980030AED1EF0FF0D3EF0FF0D4EF0FF01A807F
:101FA800D8902D362E362F3630362B06D8A02C0654
:101FB8001CAEE1EF0FF0E3EF0FF0C7EF0FF0000EEC
:101FC800326E30AEEAEF0FF0ECEF0FF010EF10F0DA
:101FD800FF0E2D14226EFF0E2E14236EFF0E2F14EB
:101FE800246E7F0E3014256E2250231024102510E5
:101FF800D8B401EF10F003EF10F007EF10F0010E66
:10200800326E10EF10F01AA00CEF10F00EEF10F077
:1020180010EF10F003EF10F03250D8B416EF10F0B4
:1020280018EF10F03CEF10F0010E1A26000E1B22DC
:102038001C221D221DA023EF10F025EF10F03CEF0D
:1020480010F01AC022F01BC023F01CC024F01DC0E1
:1020580025F02534253224322332223222C01AF0C8
:1020680023C01BF024C01CF025C01DF02B4A2C2ACD
:102078002CBE47EF10F02C5008E12B28D8A047EFD2
:1020880010F049EF10F054EF10F0000E2C6E2B6892
:10209800000E1A6E000E1B6E000E1C6E000E1D6EDA
:1020A8002CBE61EF10F02C5006E12B04D8B05FEF86
:1020B80010F061EF10F06FEF10F0000E2C6E000EB4
:1020C8002B6E000E1A6E000E1B6E000E1C6E000E9C
:1020D8001D6E000E2A6E2BC031F031A076EF10F085
:1020E80078EF10F07BEF10F01C8E7CEF10F01C9E48
:1020F800D89031301D6E32EF0FF0120055C0D9FF65
:1021080056C0DAFFDECFF6FFDDCFF7FF0800F55047
:10211800250AD8A492EF10F094EF10F00BEF12F00C
:1021280055C0D9FF56C0DAFFDE2A000EDD22000EA8
:102138000001CF6F000ECE6FCEC0D2F0CFC0D3F06B
:10214800D069D16955C0D9FF56C0DAFFDECFF6FF96
:10215800DDCFF7FF0800F550076E086A18EC19F094
:10216800075000019E6F9E51D8B4BDEF10F0BFEF2D
:1021780010F0F9EF10F055C0D9FF56C0DAFFDECFE6
:1021880059F0DDCF5AF0010E5926000E5A2259C0D7
:10219800F6FF5AC0F7FF0800F550076E086A18ECFA
:1021A80019F0075000019F6F9F51D8B4DEEF10F06F
:1021B800E0EF10F0F9EF10F055C0D9FF56C0DAFF84
:1021C800DECF59F0DDCF5AF0020E5926000E5A2202
:1021D80059C0F6FF5AC0F7FF0800F550076E086AA5
:1021E80018EC19F007500001A06F660E9E19D8A4CC
:1021F80000EF11F002EF11F042EF11F055C0D9FFD6
:1022080056C0DAFFDECFF6FFDDCFF7FF0800F5CFC7
:10221800A1F055C0D9FF56C0DAFFDE2A000EDD2234
:1022280057C0D9FF58C0DAFFDFCF59F0040EDE26B9
:10223800DFCF5AF0000EDD2259C0D9FF5AC0DAFFAD
:10224800DECF9AF0DECF9BF0DECF9CF0DECF9DF0A4
:1022580053C047F054C048F09AC049F09BC04AF0B8
:102268009CC04BF09DC04CF0A1C04DF014EC04F0A4
:1022780047C053F048C054F026EF12F09E0E016E8E
:10228800000E026E200E036E080E046E000E066E1F
:10229800020E056E8EEC15F001500210D8A457EF0F
:1022A80011F059EF11F0D5EF11F055C0D9FF56C014
:1022B800DAFFDECF59F0DDCF5AF0010E5926000EB5
:1022C8005A2259C0F6FF5AC0F7FF0800F5CFA1F00F
:1022D800BF0E596EFF0E5A6E55C0D9FF56C0DAFFB1
:1022E800DECFF6FFDDCFF7FF0800F5505B6E5C6AC6
:1022F80059505B265A505C225C500AE11A0E5B5C0E
:10230800D8A089EF11F08CEF11F0010E8DEF11F0CC
:10231800000E0001986F996B98519911D8B497EFF6
:1023280011F099EF11F0B3EF11F057C0D9FF58C071
:10233800DAFFDFCF59F0040EDE26DFCF5AF0000EA9
:10234800DD2259C0D9FF5AC0DAFFDECF9AF0DECFBE
:102358009BF0DECF9CF0DECF9DF0CBEF11F057C0A5
:10236800D9FF58C0DAFFDFCF59F0040EDE26DFCFE1
:102378005AF0000EDD2259C0D9FF5AC0DAFFDECF6D
:102388009AF0DECF9BF0DECF9CF0DECF9DF0020E00
:1023980055C0D9FF56C0DAFFDE26000EDD222CEF2D
:1023A80011F055C0D9FF56C0DAFFDECFF6FFDDCFFA
:1023B800F7FF0800F550250AD8A4E5EF11F0E7EF7C
:1023C80011F0FEEF11F055C0D9FF56C0DAFFDE2A32
:1023D800000EDD22000E026E250E016E53C003F0C2
:1023E80054C004F05FEC16F0000E546E010E536EEC
:1023F80026EF12F055C0D9FF56C0DAFFDE2A000ECC
:10240800DD22000E546E000E536E26EF12F055C0FA
:10241800D9FF56C0DAFFDECFF6FFDDCFF7FF0800A1
:10242800F550016E026A53C003F054C004F05FEC2B
:1024380016F055C0D9FF56C0DAFFDE2A000EDD229D
:10244800F8EF11F01200B8C043F0B9C044F0BAC0B8
:1024580045F0BBC046F033C043F034C044F035C04B
:1024680045F036C046F0810E376EFF0E386E43C019
:1024780039F044C03AF045C03BF046C03CF0180E75
:102488004BEF12F0D8903C323B323A323932E82ED8
:1024980046EF12F039503724416E000E3820426E54
:1024A80042BE60EF12F0425009E1170E415CD8A01D
:1024B80060EF12F062EF12F06CEF12F033C033F0FD
:1024C80034C034F035C035F036C036F02FEF13F095
:1024D80042BE71EF12F073EF12F0E3EF12F041C059
:1024E80037F0FF0E386EFF0E396E7F0E3A6E000E13
:1024F8003B6E376682EF12F08AEF12F03B343B32C4
:102508003A3239323832372E7DEF12F038C03DF08A
:1025180039C03EF03AC03FF03BC040F03D50431454
:10252800376E3E504414386E3F504514396E405053
:1025380046143A6E3750381039103A10D8A4A7EF1D
:1025480012F0A9EF12F0ABEF12F062EF12F043C0F5
:1025580037F044C038F045C039F046C03AF0200E94
:10256800BBEF12F0D8903A32393238323732E82E8F
:10257800B6EF12F03750381039103A10D8B4C7EF08
:1025880012F0C9EF12F0D1EF12F03D5043263E5041
:1025980044223F504522405046223D1C376E3E1C87
:1025A800386E3F1C396E401C3A6E3750431638500F
:1025B8004416395045163A50461627EF13F043C0D3
:1025C80037F044C038F045C039F046C03AF0200E24
:1025D800F3EF12F0D8903A32393238323732E82EE7
:1025E800EEEF12F03750381039103A10D8A4FFEF38
:1025F80012F001EF13F00BEF13F0000E436E000E14
:10260800446E000E456E000E466E27EF13F0D8900C
:102618004334376E4434386E4534396E46343A6E36
:102628003750381039103A10D8B41DEF13F01FEF97
:1026380013F027EF13F0000E436E000E446E800E69
:10264800456EBF0E466E43C033F044C034F045C0FB
:1026580035F046C036F01200096E0950D8B437EF8D
:1026680013F039EF13F05BEF13F004BE40EF13F0F3
:102678003EEF13F05BEF13F001C005F002C006F067
:1026880003C007F004C008F0051E061E071E081E3A
:10269800052A000E06220722082205C00BF006C0F4
:1026A8000CF007C00DF008C00EF063EF13F001C086
:1026B8000BF002C00CF003C00DF004C00EF0015086
:1026C800021003100410D8A46CEF13F06EEF13F08F
:1026D80078EF13F0000E016E000E026E000E036E0E
:1026E800000E046E09EF14F0960E0A6E82EF13F0D6
:1026F8000A2AD8900E320D320C320B32000E0B140F
:10270800056E000E0C14066E000E0D14076EFE0EFC
:102718000E14086E0550061007100810D8A497EF7D
:1027280013F099EF13F07CEF13F0A7EF13F00A2AD8
:10273800010E0B26000E0C220D220E22D8900E320E
:102748000D320C320B32000E0B14056E000E0C14F9
:10275800066E000E0D14076EFF0E0E14086E05505F
:10276800061007100810D8A4BCEF13F0BEEF13F042
:102778009BEF13F0C6EF13F00A06D8900B360C3611
:102788000D360E360DBECBEF13F0CDEF13F0D5EFAF
:1027980013F0020E0A60D3EF13F0D5EF13F0C0EF79
:1027A80013F00AB0DAEF13F0DCEF13F0DDEF13F0FB
:1027B8000D9ED8900A320AC005F0066A076A086AB0
:1027C80005C008F0076A066A056A05500B1206502C
:1027D8000C1207500D1208500E120950D8B4F7EF1A
:1027E80013F0F9EF13F001EF14F004BE00EF14F04A
:1027F800FEEF13F001EF14F00E8E0BC001F00CC0C9
:1028080002F00DC003F00EC004F012003534363467
:102818003C6E3C50D8A413EF14F015EF14F01FEFE2
:1028280014F0000E336E000E346E000E356E000E7E
:10283800366E8CEF14F033C037F034C038F035C042
:1028480039F036C03AF0200E2FEF14F0D8903A3213
:10285800393238323732E82E2AEF14F037503B6ECF
:10286800358EFF0E3316FF0E3416FF0E3516000E8A
:102878003616960E3C5E3CBE46EF14F044EF14F05C
:102888005CEF14F03C50800A970FD8B04EEF14F06C
:1028980050EF14F052EF14F015EF14F0D8903632D0
:1028A8003532343233323C3E52EF14F074EF14F0C8
:1028B8001F0E3C6462EF14F064EF14F06CEF14F038
:1028C80015EF14F0D89033363436353636363C06A4
:1028D8003C50D8A472EF14F074EF14F066EF14F0C3
:1028E8003B50D8B47AEF14F07CEF14F084EF14F076
:1028F800361E351E341E336C000E34223522362225
:1029080033C033F034C034F035C035F036C036F05B
:102918001200000E1A14226E000E1B14236E800E75
:102928001C14246E7F0E1D14256E225023102410B3
:102938002510D8A4A2EF14F0A4EF14F0ACEF14F013
:10294800000E1A6E000E1B6E000E1C6E000E1D6E21
:10295800000E1E14226E000E1F14236E800E20140B
:10296800246E7F0E2114256E22502310241025106A
:10297800D8A4C1EF14F0C3EF14F0CBEF14F0000E9D
:102988001E6E000E1F6E000E206E000E216E1DAE14
:10299800D0EF14F0D2EF14F0DBEF14F01A6C1B1E1A
:1029A800D8B01B2A1C1ED8B01C2A800E1D5621AE7A
:1029B800E0EF14F0E2EF14F0EBEF14F01E6C1F1EC2
:1029C800D8B01F2A201ED8B0202A800E2156000E0B
:1029D8001A1A000E1B1A000E1C1A800E1D1A000E61
:1029E8001E1A000E1F1A000E201A800E211A1E50E1
:1029F8001A5C1F501B5820501C5821501D58D8B025
:102A080008EF15F00AEF15F00DEF15F0D8900EEF5E
:102A180015F0D8801200BCC00BF0BDC00CF0BEC0D1
:102A28000DF0BFC00EF001C00BF002C00CF003C0E7
:102A38000DF004C00EF00BC005F00CC006F00DC080
:102A480007F00EC008F0180E2FEF15F0D8900832D6
:102A5800073206320532E82E2AEF15F00550096EC6
:102A68000A6A09500A10D8A43CEF15F03EEF15F099
:102A78005EEF15F0D8900B34056E0C34066E0D34ED
:102A8800076E0E34086E0550061007100810D8A4FB
:102A980050EF15F052EF15F058EF15F0000E026EDA
:102AA800020E016E8DEF15F0000E026E030E016E20
:102AB8008DEF15F009280A10D8A465EF15F067EF17
:102AC80015F089EF15F00BC005F00CC006F00DC02D
:102AD80007F00EC008F0090ED890053606360736FE
:102AE8000836E82E70EF15F005500610071008108C
:102AF800D8B481EF15F084EF15F0010E85EF15F0CD
:102B0800000E016E026A8DEF15F0000E026E040EC3
:102B1800016E120001C008F002C009F003C00AF0FB
:102B280004C00BF00506D8A00606052806E106280D
:102B3800D8A4A1EF15F0A3EF15F0B0EF15F0000E33
:102B4800026E000E016EF8EF15F0084A092A0A4ACB
:102B58000B2A0506D8A0060608C0D9FF09C0DAFF67
:102B6800DF50D8B4BAEF15F0BCEF15F0E7EF15F069
:102B78000AC0F6FF0BC0F7FF0800F5500009D8B4EB
:102B8800C8EF15F0CAEF15F0E7EF15F0055006107D
:102B9800D8B4D1EF15F0D3EF15F0E7EF15F008C072
:102BA800D9FF09C0DAFFDF50076E0AC0F6FF0BC075
:102BB800F7FF0800F5500718D8B4E5EF15F0E7EF70
:102BC80015F0A9EF15F008C0D9FF09C0DAFFDF50EA
:102BD800076E0AC0F6FF0BC0F7FF0800F550075C48
:102BE800016E026AD8A002061200C280C28257EFA4
:102BF80016F0000E3B6E000E3C6E000E3D6E000E91
:102C08003E6EC450346E336AC350356E366A3350E4
:102C180035263450362235C001F036C002F0000E99
:102C280002BEFF0E036E046E010E30EC13F001C0FD
:102C38003BF002C03CF003C03DF004C03EF0000E83
:102C4800056E000E066EC80E076E420E086E3BC07B
:102C580001F03CC002F03DC003F03EC004F0A0EC1F
:102C68000CF001C01AF002C01BF003C01CF004C035
:102C78001DF0000E1E6EC00E1F6E7F0E206E440EDD
:102C8800216EB5EC0EF01AC037F01BC038F01CC02E
:102C980039F01DC03AF037C0C8F038C0C9F039C0A3
:102CA800CAF03AC0CBF0C2B25CEF16F05EEF16F095
:102CB800FDEF15F0120003500410D8B466EF16F0BB
:102CC80068EF16F071EF16F003500410D8A46FEFF8
:102CD80016F071EF16F076EF16F00150FBEC1AF0D3
:102CE800C3EF16F020EE04F00350D9260450DA2280
:102CF800DE50DE10D8B483EF16F085EF16F0A0EFA3
:102D080016F020EE04F00350D9260450DA2210EE13
:102D180002F00350E1260450E222DE50E65CE65061
:102D2800800A096EDE50800A0958D8B09EEF16F066
:102D3800A0EF16F0C3EF16F020EE02F00350D926EC
:102D48000450DA22DECF05F0DDCF06F003C0D9FF4C
:102D580004C0DAFFDECF07F0DDCF08F00550072406
:102D6800D96E06500820DA6E01C0DFFF20EE02F0AF
:102D78000350D9260450DA22DE2A000EDD22120082
:102D88000001D2A1CAEF16F0CCEF16F0D6EF16F07C
:102D980013C00AF014C00BF011C00CF012C00DF0F3
:102DA80017EC1AF016BEDBEF16F0DDEF16F0E3EFC6
:102DB80016F015C01AF016C01BF0E7EF16F0000E5B
:102DC8001B6E000E1A6E000E196E000E186EF9EFCB
:102DD80016F0000E026E200E016E11C003F012C034
:102DE80004F05FEC16F0184A192A1A50185C1950AA
:102DF800800A176E1B50800A1758D8A006EF17F0E4
:102E080008EF17F0EDEF16F00001D2B10EEF17F052
:102E180010EF17F01AEF17F013C00AF014C00BF0F8
:102E280011C00CF012C00DF017EC1AF013C001F02D
:102E380014C002F08EEC1AF01A500124116E1B50C7
:102E48000220126E1200000E066E04BE30EF17F05C
:102E58002EEF17F036EF17F0036C041ED8B0042AD3
:102E6800010E066E02BE3DEF17F03BEF17F043EF81
:102E780017F0016C021ED8B0022A010E061A000EC5
:102E8800086E000E076E03500410D8B44EEF17F00A
:102E980050EF17F078EF17F0010E056E58EF17F0A6
:102EA800D89003360436052A04AE5DEF17F05FEFBD
:102EB80017F054EF17F0D890073608360350015C26
:102EC80004500258D8A06BEF17F06DEF17F072EFAF
:102ED80017F00350015E0450025A0780D89004325C
:102EE8000332052E5FEF17F00650D8B47EEF17F0C7
:102EF80080EF17F084EF17F0076C081ED8B0082A87
:102F080007C001F008C002F01200010E926E000E18
:102F1800946E000E956E000E946EF0EC1AF039EC7B
:102F28001AF0F7EC1AF00D0E5F6EFC0EE82EFED7C5
:102F38005F2EFCD7F7EC1AF0000E046E030E036E3A
:102F4800000E066E000E056ECEEC19F0010E036E33
:102F5800080E046E48EC19F0F9EC15F0D60E0001D5
:102F6800A86F000EA96F230EAA6F080EAB6FC8C01A
:102F7800ACF0C9C0ADF0CAC0AEF0CBC0AFF0A5ECA4
:102F880019F0000E046E000E036E000E066E020E9F
:102F9800056ECEEC19F0D60E036E000E046E48ECEA
:102FA80019F01C0E036E080E046E48EC19F0820E20
:102FB8005F6EDE0EE82EFED75F2EFCD795EC18F07C
:102FC800B0EF17F000EF00F0000E066E02BEF1EF52
:102FD80017F0EFEF17F0F7EF17F0016C021ED8B0FB
:102FE800022A010E066E04BEFEEF17F0FCEF17F082
:102FF80002EF18F0036C041ED8B0042A0350041022
:10300800D8B409EF18F00BEF18F02FEF18F0010EF5
:10301800056E13EF18F0D89003360436052A04AE6F
:1030280018EF18F01AEF18F00FEF18F00350015CC2
:1030380004500258D8A023EF18F025EF18F029EF14
:1030480018F00350015E0450025AD890043203323B
:10305800052E1AEF18F00650D8B435EF18F037EFF0
:1030680018F03BEF18F0016C021ED8B0022A01C01C
:1030780001F002C002F01200000E0114096E000EE9
:1030880002140A6E800E03140B6E7F0E04140C6E6D
:1030980009500A100B100C10D8A455EF18F057EF70
:1030A80018F05FEF18F0000E016E000E026E000EB1
:1030B800036E000E046E000E0514096E000E061451
:1030C8000A6E800E07140B6E7F0E08140C6E0950E2
:1030D8000A100B100C10D8A474EF18F076EF18F043
:1030E8007EEF18F0000E056E000E066E000E076EDD
:1030F800000E086E055001180FE1065002180CE189
:103108000750031809E108500418D8B48EEF18F0D6
:1031180090EF18F093EF18F0D89094EF18F0D8804B
:103128001200630ECB6EC8C0C4F0C9C0C5F0CAC0D7
:10313800C6F0CBC0C7F0000E1E6E000E1F6EC80E84
:10314800206E420E216E000E056E000E066EC80E31
:10315800076E430E086EC4C001F0C5C002F0C6C0B9
:1031680003F0C7C004F0A0EC0CF001C01AF002C0D4
:103178001BF003C01CF004C01DF0B5EC0EF01AC023
:1031880033F01BC034F01CC035F01DC036F00AEC1B
:1031980014F033C0D4F034C0D5F0D4C03DF0D5C05D
:1031A8003EF03E343E323D323E343E323D323D50BA
:1031B800BE6E94929494000ECA6E0C0EBD6E000EF4
:1031C800CC6ECA841200A4C05DF0A5C05EF0000EEB
:1031D8000001CD6F000ECC6F05EF19F0A2C053F0BF
:1031E800A3C054F05D0E556E000E566EA6C057F083
:1031F800A7C058F082EC10F053500001CC2754506F
:10320800CD235DC0F6FF5EC0F7FF0800F55000094A
:10321800D8A411EF19F013EF19F0F2EF18F0CCC0A1
:10322800A2F0CDC0A3F01200BF0E096EFF0E0A6E09
:1032380007C00BF008C00CF009500B260A500C22EE
:103248000C500AE11A0E0B5CD8A02DEF19F030EFE4
:1032580019F0010E31EF19F0000E0D6E0E6A0D50C7
:103268000E10D8B43AEF19F03CEF19F043EF19F00B
:10327800200E0710076E0850086E47EF19F007C0B8
:1032880007F008C008F012005EEF19F003C0F6FF5F
:1032980004C0F7FFF86A070EF76403D00800F5507A
:1032A80005D0F6CFE1FFF7CFE2FFE750C1EC1AF007
:1032B800034A042A03C0F6FF04C0F7FFF86A070EA2
:1032C800F76403D00800F55005D0F6CFE1FFF7CF3B
:1032D800E2FFE7500009D8A474EF19F076EF19F06F
:1032E8004AEF19F0120003C007F004C008F001C04B
:1032F80009F002C00AF00750056E0850066E074A2A
:10330800082A05C0F6FF06C0F7FFF86A09C0D9FF0A
:103318000AC0DAFF094A0A2A070EF76403D0080030
:10332800F55005D0F6CFE1FFF7CFE2FFE750DF6EAB
:10333800DF50D8A4A2EF19F0A4EF19F07FEF19F02D
:103348001200AC0E0001B06F000EB16FA8C0B2F051
:10335800A9C0B3F0000EB56F000EB46F000EB76FC2
:10336800000EB66FB20EA26F000EA36FAAC0A4F033
:10337800ABC0A5F0B00EA66F000EA76FE7EC18F073
:103388000001B451A825D96EB551A921DA6E000EF5
:10339800DF6E1200DAEF19F00350800F096EF0EFBC
:1033A80019F00350C00F096EF0EF19F005C007F0CF
:1033B80006C008F00850000AD8B4E5EF19F0D0EFBD
:1033C80019F00750010AD8B4D0EF19F0030AD8B49D
:1033D800D5EF19F0D0EF19F00950A9EC1AF0120046
:1033E800000E1E1A000E1F1A000E201A800E211A37
:1033F8001AC001F01BC002F01CC003F01DC004F08D
:103408001EC005F01FC006F020C007F021C008F05C
:1034180040EC0AF001C01AF002C01BF003C01CF017
:1034280004C01DF01200000E106E000E0F6E28EF83
:103438001AF00EC001F0026A0CC003F00DC004F0CF
:103448005FEC16F00F4A102A0F500A24D96E10505C
:103458000B20DA6EDF500E6E0E50D8A436EF1AF03D
:1034680038EF1AF01DEF1AF01200969096920F0E90
:10347800946E8D908D92000E8B6E410E036EEE0E43
:10348800E82EFED7032EFCD700D0020EA9EC1AF0C6
:10349800280EA9EC1AF00C0EA9EC1AF0060EA9ECED
:1034A8001AF01200BF0E036EFF0E046E01C005F085
:1034B80002C006F0035005260450062206500AE111
:1034C8001A0E055CD8A06BEF1AF06EEF1AF0010E19
:1034D8006FEF1AF0000E016E026A1200015002101E
:1034E80003100410D8B47BEF1AF07DEF1AF085EFC3
:1034F8001AF0000E011A000E021A000E031A800EAE
:10350800041A01C001F002C002F003C003F004C0B5
:1035180004F0120001C003F002C004F096EF1AF0A4
:10352800014A022A01C0D9FF02C0DAFFDF50D8A43D
:10353800A0EF1AF0A2EF1AF094EF1AF00350015C12
:10354800016E04500258026E1200026E8D900250F5
:10355800F00B8B6EE7EC1AF002C001F00F0E0116AB
:103568000138F00B8B6EE7EC1AF0030E016E980E23
:10357800E82EFED7012EFCD71200026E8D80025075
:10358800F00B8B6EE7EC1AF002C001F00F0E01167B
:103598000138F00B8B6EE7EC1AF0100EE82EFED710
:1035A80000D0120001EE00F0500EEE6AE806FDE1D0
:1035B80000EEB8F0220EEE6AE806FDE1000EF86EA5
:1035C800000189EF17F08D8200D000D000F08D92B5
:1035D80000D000D000F01200000EC26E0E0EC16EB8
:1035E800940EC06E1200010EA9EC1AF0120012001F
:020000040020DA
:08000000FFFFFFFFFFFFFFFF00
:020000040030CA
:0E00000000051F1FFF8385FF0FC00FE00F409C
:00000001FF
